:100000000C9472000C9494000C9494000C94940042
:100010000C9494000C9494000C9494000C94940010
:100020000C9494000C9494000C9494000C94940000
:100030000C9494000C9494000C9494000C949400F0
:100040000C9494000C9494000C9494000C949400E0
:100050000C9494000C9494000C9494000C949400D0
:100060000C9494000C9494000C9494000C949400C0
:100070000C9494000C9494000C9494000C949400B0
:100080000C9494000C9494000C9494000C949400A0
:100090000C9494000C9494000C9494000C94940090
:1000A0000C9494000C9494000C9494000C94940080
:1000B0000C9494000C9494000C9494000C94940070
:1000C0000C9494000C9494000C9494000C94940060
:1000D0000C9494000C9494000C9494000C94940050
:1000E0000C94940011241FBECFEFD1E2DEBFCDBF30
:1000F00000E00CBF12E0A0E0B2E0EAE0F3E000E0D4
:100100000BBF02C007900D92A030B107D9F71BBEFC
:1001100012E0A0E0B2E001C01D92A030B107E1F70B
:100120000E9496000C9483010C9400008FEF81B91B
:1001300012B899EA909380009AE09093810010920F
:1001400089001092880010928B0010928A00109201
:100150008D0010928C0084B940E0E8E8F0E02FE7D1
:10016000AAE8B0E0CCE8D0E030E00FC08081918117
:100170000296918380836FEF70E782E06150704058
:100180008040E1F700C000004F5F4F3778F34FEF3A
:1001900053ED60E3415050406040E1F700C0000083
:1001A000422F8D919C911197029611969C938E935C
:1001B0006FEF70E782E0615070408040E1F700C06F
:1001C0000000415071F74FEF53ED60E34150504054
:1001D0006040E1F700C00000422F808191810297CA
:1001E000918380836FEF70E782E0615070408040C0
:1001F000E1F700C00000415081F74FEF53ED60E39D
:10020000415050406040E1F700C00000422F88811B
:1002100099810296998388836FEF70E782E061503D
:1002200070408040E1F700C00000415081F74FEF7F
:1002300053ED60E3415050406040E1F700C00000E2
:10024000422F8D919C911197029711969C938E93BA
:100250006FEF70E782E0615070408040E1F700C0CE
:100260000000415071F74FEF53ED60E341505040B3
:100270006040E1F700C00000422F8081918102962A
:10028000918380836FEF70E782E06150704080401F
:10029000E1F700C00000415081F74FEF53ED60E3FC
:1002A000415050406040E1F700C00000422F88817B
:1002B00099810297998388836FEF70E782E061509C
:1002C00070408040E1F700C00000415081F74FEFDF
:1002D00053ED60E3415050406040E1F700C0000042
:1002E000422F808191810297918380836FEF71EE1D
:1002F00084E0615070408040E1F700C00000415050
:0A03000081F7432F42CFF894FFCF9E
:00000001FF
