:1000000012C02CC02BC02AC029C028C027C026C0BF
:1000100025C024C023C022C021C020C01FC01EC0D4
:100020001DC01CC01BC011241FBECFE5D4E0DEBF25
:10003000CDBF10E0A0E6B0E0E2E7F1E002C005903D
:100040000D92A036B107D9F710E0A0E6B0E001C0EC
:100050001D92A036B107E1F780D089C0D1CF909A28
:1000600095E89A95F1F7000092B39F7092BB92B316
:100070008295807F892B82BB909885E88A95F1F7DD
:1000800000000895CF93C82F82958F706115710578
:1000900011F4919801C0919AE2DF8C2FE0DFCF91AB
:1000A00008958FE59AEE0197F1F700C0000083E014
:1000B000D6DF8FE39FE10197F1F700C0000083E0F6
:1000C000CEDF87EC90E00197F1F700C0000083E0FD
:1000D000C6DF8FEC97E00197F1F700C0000082E0E7
:1000E000BEDF8FEC97E00197F1F700C0000088E2D7
:1000F00060E070E0C7DF8FEC97E00197F1F700C098
:1001000000008CE060E070E0BDDF8FEC97E00197CD
:10011000F1F700C0000086E060E070E0B3DF8FEC34
:1001200097E00197F1F700C0000008956295660F0F
:10013000660F607C860F806860E070E0A3DF089542
:100140008FEF81BB8FE798E3A1E081509040A04002
:10015000E1F700C00000A5DF0895F2DFA2DF80E034
:1001600060E0E4DF81E461E070E08CDFFBCFF894D5
:02017000FFCFBF
:00000001FF
