:100000001CC036C035C034C059C032C031C030C049
:100010002FC0A4C02DC02CC02BC02AC029C028C00E
:1000200027C026C025C02CC02EC030C032C034C06E
:1000300036C038C03AC03CC03EC011241FBECFE518
:10004000D4E0DEBFCDBF10E0A0E6B0E0EEEAF2E023
:1000500002C005900D92A436B107D9F710E0A4E6CE
:10006000B0E001C01D92AA36B107E1F7E6D01DC18C
:10007000C7CF8A30910508F5FC01ED5EFF4F09946A
:100080002FE322BB089529E022BB08952EE522BB71
:1000900008952BE522BB089529E622BB089523E7A6
:1000A00022BB089527E722BB089529E122BB0895CA
:1000B0002FE722BB08952BE722BB08951F920F92D2
:1000C0000FB60F9211248F939F93809168009091A7
:1000D00069000196909369008093680084369105C9
:1000E000A9F51092690010926800809166009091C5
:1000F0006700019690936700809366008C339105AA
:1001000031F5109267001092660080916000909126
:100110006100019690936100809360008C3391059B
:10012000B1F4109261001092600080916200909191
:10013000630001969093630080936200883191057B
:1001400031F4109263001092620001C000009F9190
:100150008F910F900FBE0F901F9018951F920F92C6
:100160000FB60F9211242F933F934F935F936F938A
:100170007F938F939F93AF93BF93EF93FF9315BAA2
:100180002091620030916300809160009091610045
:1001900040916400509165004F5F5F4F5093650040
:1001A000409364004530510539F481E090E090932C
:1001B00065008093640011C042305105B9F04330AE
:1001C000510524F44130510539F507C0433051053C
:1001D000A9F04430510501F519C0C9016AE070E089
:1001E0003DD0CB0146DF88E085BB16C0C9016AE07F
:1001F00070E034D03EDF84E085BB0EC06AE070E082
:100200002DD0CB0136DF82E085BB06C06AE070E00E
:1002100025D02FDF81E085BBFF91EF91BF91AF919A
:100220009F918F917F916F915F914F913F912F910E
:100230000F900FBE0F901F9018958FEF81BB84BB5E
:1002400080E887BB88E082BD14BC13BC81E085BD1B
:1002500082E083BF81E489BF7894FFCF97FB092EAA
:1002600007260AD077FD04D00CD006D000201AF45F
:10027000709561957F4F0895F6F7909581959F4F02
:100280000895AA1BBB1B51E107C0AA1FBB1FA617DD
:10029000B70710F0A61BB70B881F991F5A95A9F72F
:0E02A00080959095BC01CD010895F894FFCF94
:0402AE0022000C001E
:00000001FF
