:1000000012C02CC02BC02AC029C028C027C026C0BF
:1000100025C025C023C022C021C020C01FC01EC0D3
:100020001DC01CC01BC011241FBECFE5D4E0DEBF25
:10003000CDBF10E0A0E6B0E0EEEBF0E002C005902E
:100040000D92A236B107D9F710E0A2E6B0E001C0E8
:100050001D92A236B107E1F727D02FC0D1CF1F9252
:100060000F920FB60F9211248F939F93809160008F
:1000700090916100880F991F9093610080936000B8
:100080008F3F910539F034F081E090E0909361006A
:10009000809360008091600082BB9F918F910F9050
:1000A0000FBE0F901F9018958FEF81BB85E083BF27
:0E00B00081E089BF78940000FECFF894FFCF66
:0200BE0001003F
:00000001FF
