:100000001CC02BC02AC029C028C027C026C025C0BC
:1000100024C0F4C022C021C020C01FC01EC01DC00B
:100020001CC01BC01AC021C023C025C027C029C0C6
:100030002BC02DC02FC031C033C011241FBECFE54F
:10004000D4E0DEBFCDBF20E0A0E6B0E001C01D924D
:10005000A437B207E1F7D7D1D9C1D2CF8A30910501
:1000600008F5FC01ED5EFF4F09948FE382BB089514
:1000700089E082BB08958EE582BB08958BE582BB43
:10008000089589E682BB089583E782BB089587E7D8
:1000900082BB089589E182BB08958FE782BB0895F2
:1000A0008BE782BB08958FEF87BB8DB183658DB9D8
:1000B000089580E384BB15BA8FEF81BB12BA82E04A
:1000C00083BF81E089BF789408958FB9779BFECF75
:1000D0008FB1089581309105E9F01CF4009749F043
:1000E000089582309105E9F18330910509F460C0EB
:1000F000089510926B0010926A0010927100109295
:10010000700010926F0010926E0010926D001092AD
:100110006C00089580917000909171000196909309
:100120007100809370008436910509F066C01092CA
:100130006F0010926E0010926D0010926C00809112
:100140006400909165000196823091052CF49093A3
:100150006500809364000895109265001092640019
:10016000089580916E0090916F00019690936F00BA
:1001700080936E008436910509F03FC010927100A3
:100180001092700010926D0010926C0080916200CD
:10019000909163000196823091052CF49093630056
:1001A0008093620008951092630010926200089597
:1001B00080916C0090916D00019690936D008093FA
:1001C0006C0084369105C9F4109271001092700091
:1001D00010926F0010926E0080916000909161000B
:1001E0000196823091052CF4909361008093600019
:1001F0000895109261001092600008951F920F926E
:100200000FB60F9211242F933F934F935F936F93E9
:100210007F938F939F93AF93BF93EF93FF9318BAFE
:100220008091720090917300019690937300809377
:1002300072008330910529F41092730010927200BD
:1002400008C08130910561F08230910581F0892BE1
:10025000A1F4809164009091650000DFC79A0DC001
:100260008091620090916300F9DEC69A06C0809189
:10027000600090916100F2DEC09A989B1BC0809153
:100280006A0090916B00892B31F481E090E09093AB
:100290006B0080936A0081E090E090936900809306
:1002A000680080916A0090916B00019719F481E0D9
:1002B00090E010DF999B1CC080916A0090916B00C8
:1002C000892B31F482E090E090936B0080936A0078
:1002D00081E090E0909369008093680080916A00CB
:1002E00090916B00029709F07AC082E090E0F2DE14
:1002F0009A9B1BC080916A0090916B00892B31F40E
:1003000083E090E090936B0080936A0081E090E03E
:10031000909369008093680080916A0090916B00CF
:10032000039749F483E090E0D5DE809168009091D6
:100330006900019729F4109269001092680003C0C7
:1003400080E090E0C7DE8FEF90E0909367008093AD
:1003500066008091640090916500019731F08EEF06
:1003600090E0909367008093660080916200909186
:100370006300019751F4809166009091670099277E
:1003800090936700809366000AC080916600909108
:1003900067008D7F99279093670080936600809116
:1003A000600090916100019751F4809166009091F6
:1003B0006700992790936700809366000AC0809138
:1003C0006600909167008B7F9927909367008093D8
:1003D0006600809166009091670077DE03C09A996D
:1003E00089CFA9CFFF91EF91BF91AF919F918F914D
:1003F0007F916F915F914F913F912F910F900FBE21
:100400000F901F90189555DE4EDEFFCFF894FFCF6A
:00000001FF
