S01F0000313730395F50725F56454E55532856552D4D65746572292E73726563FD
S11300006CC086C085C084C083C082C081C080C0EB
S11300107FC09EC17DC07CC07BC07AC079C078C0DF
S113002077C076C075C04D009100CC0018015C010A
S11300309901E30126026502AA02F00233037A035E
S1130040BD03FF030A0033006600A300E1001E01A4
S113005044016B019901C90100023C028402DB02E4
S1130060FF030000803FC3F5883F3333933F000014
S1130070A03F7B14AE3F0000C03F8FC2D53F7B142E
S1130080EE3F14AE074000002040F6283C409A9909
S113009069400000A040AE47E1405C8F524100003F
S11300A0803F3333B33F1F85CB3FB81EE53F00008D
S11300B00040295C0F4000002040E17A3440713D4B
S11300C04A40E17A64409A9991400000C840000097
S11300D020410000A0410000C84211241FBECFE50A
S11300E0D4E0DEBFCDBF10E0A0E6B0E0E6E0F6E08D
S11300F002C005900D92A436B107D9F710E0A4E62A
S1130100B0E001C01D92AD39B107E1F77ED079C2EC
S113011077CF4F925F926F927F928F929F92BF920E
S1130120CF92DF92EF92FF920F931F93CF93DF93BF
S1130130B82E409060005090610060906200709012
S113014063000F2EFFE78F2EF0E09F2EF02DC0E00E
S1130150D0E0BB2081F4FE01EE0FFF1FEE0FFF1F66
S1130160E256FF4F85919591A591B491C82ED92E51
S1130170EA2EFB2E12C081E0B81679F4FE01EE0FD0
S1130180FF1FEE0FFF1FEE59FF4F85919591A5912B
S1130190B491C82ED92EEA2EFB2EC301B2010C2D28
S11301A01D2D2E2D3F2DA901980141D1A8D1DC018F
S11301B0CB01F401819391934F012196CF30D10566
S11301C009F0C7CFDF91CF911F910F91FF90EF906E
S11301D0DF90CF90BF909F908F907F906F905F90B3
S11301E04F9008958FEF81BB87BB14BA83B78260A9
S11301F083BF89B7816089BF87B1856487B986B1B8
S1130200856886B9359A78940895ECDF80E081DFBB
S1130210EEE6F0E0A6E6B0E0CCE6D0E020916E0099
S113022030916F0080917200909173002817390704
S113023028F490936F0080936E0009C0821793078F
S113024030F43695279530936F0020936E008081AB
S113025082BB92B38C91892B82BB80916F0088BB47
S113026098B380916700892B88BBC69A1092790055
S113027010926900109268008FE19EE40197F1F7F3
S113028000C00000888182BB80916D0088BBC79A42
S113029010926B0010926A008FE19EE40197F1F7CF
S11302A000C00000BBCF1F93CF93DF93DC0161300C
S11302B031F580919B0090919C008A179B07D0F5A3
S11302C0EBE9F0E0BF016C51704021E030E041E027
S11302D050E0C1E0D0E0929182918A179B0790F59B
S11302E0CE01022E02C0880F991F0A94E2F7482B10
S11302F0592B2F5F3F4FE617F70769F723C062308A
S1130300E1F480919B0090919C008A179B07C0F4B4
S1130310EBE9F0E09F012C51304042E050E0929133
S113032082918A179B0770F4440F551FE217F30755
S1130330B1F708C040E050E005C040E050E002C022
S113034041E050E0842F952FDF91CF911F910895C4
S11303501F920F920FB60F9211242F933F934F9336
S11303605F936F937F938F939F93AF93BF93EF9319
S1130370FF9324B135B180916A0090916B0082178C
S1130380930730F484B195B190936B0080936A0025
S113039080916A0090916B0061E085DF9093730017
S11303A080937200369AFF91EF91BF91AF919F9124
S11303B08F917F916F915F914F913F912F910F900A
S11303C00FBE0F901F901895DC0168177907C8F4C9
S11303D080919B0090919C008A179B0718F5EBE98C
S11303E0F0E09F012C51304042E050E09291829124
S11303F08A179B07C8F4440F551FE217F307B1F798
S113040013C0809178008F3148F0A617B70730F4F5
S1130410AB01569547951092780006C08F5F809384
S11304207800089541E050E0842F952F08950CD072
S1130430AEC0A6D040F09DD030F021F45F3F19F05B
S11304408FC05111D8C092C0B3D098F39923C9F387
S11304505523B1F3951B550BBB27AA2762177307C6
S1130460840738F09F5F5F4F220F331F441FAA1F7A
S1130470A9F333D00E2E3AF0E0E830D0915050403A
S1130480E695001CCAF729D0FE2F27D0660F771FE8
S1130490881FBB1F261737074807AB07B0E809F0CA
S11304A0BB0B802DBF01FF2793585F4F2AF09E3F5F
S11304B0510568F055C09FC05F3FECF3983EDCF3F4
S11304C0869577956795B795F7959F5FC9F7880FD8
S11304D0911D9695879597F90895E1E0660F771F2A
S11304E0881FBB1F621773078407BA0720F0621BBB
S11304F0730B840BBA0BEE1F88F7E095089504D0B4
S11305006894B11178C008955BD088F09F5790F03B
S1130510B92F9927B751A0F0D1F0660F771F881F24
S1130520991F1AF0BA95C9F712C0B13081F062D0A0
S1130530B1E008955FC0672F782F8827B85F39F03E
S1130540B93FCCF3869577956795B395D9F73EF483
S113055090958095709561957F4F8F4F9F4F08952B
S113056097F99F6780E870E060E008959FEF80EC62
S1130570089500240A941616170618060906089505
S113058000240A9412161306140605060895092E6B
S11305900394000C11F4882352F0BB0F40F4BF2BDA
S11305A011F460FF04C06F5F7F4F8F4F9F4F08951A
S11305B057FD9058440F551F59F05F3F71F0479510
S11305C0880F97FB991F61F09F3F79F087950895F5
S11305D0121613061406551FF2CF4695F1DF08C014
S11305E0161617061806991FF1CF86957105610531
S11305F008940895E894BB2766277727CB0197F9D9
S10906000895F894FFCFF9
S10706060000344375
S9030000FC
