:1000000012C02CC02BC02AC029C028C027C026C0BF
:1000100025C024C023C022C021C020C01FC01EC0D4
:100020001DC01CC01BC011241FBECFE5D4E0DEBF25
:10003000CDBF10E0A0E6B0E0E0EFF1E002C0059037
:100040000D92A836B107D9F720E0A8E6B0E001C0CC
:100050001D92A836B207E1F788D0C8C0D1CF919AD7
:1000600095E89A95F1F7000092B39F7092BB92B316
:100070008295807F892B82BB919885E88A95F1F7DC
:1000800000000895CF93C82F82958F70611102C030
:10009000909801C0909AE3DF8C2FE1DFCF91089513
:1000A000CF93C82F909A82958F70D9DF8C2FD7DF8E
:1000B000CF9108958FE39CE90197F1F700C000000C
:1000C00083E0CDDF8FE097E20197F1F700C00000F9
:1000D00083E0C5DF87EC90E00197F1F700C00000F6
:1000E00083E0BDDF8FEC97E00197F1F700C00000DF
:1000F00082E0B5DF8FEC97E00197F1F700C00000D8
:1001000060E08CE2BFDF8FEC97E00197F1F700C071
:10011000000060E08CE0B6DF8FEC97E00197F1F72C
:1001200000C0000060E081E0ADDF8FEC97E0019758
:10013000F1F700C0000060E086E0A4DF8FEC97E0FC
:100140000197F1F700C0000008958FEC97E0019748
:10015000F1F700C0000060E081E094DF8FE99FE0EC
:100160000197F1F700C000000895EF92FF920F93FE
:100170001F93CF93DF93CDB7DEB728970FB6F894D0
:10018000DEBF0FBECDBF8FEF81BB94DFDEDF88E027
:10019000E0E6F0E0DE01119601900D928A95E1F71C
:1001A00060E080E46FDF8E010F5F1F4F7E0189E00A
:1001B000E80EF11C61E0F80181918F0163DF0E15FB
:1001C0001F05C1F760E080E85DDF80E069DF80E067
:1001D00090E028960FB6F894DEBF0FBECDBFDF913A
:1001E000CF911F910F91FF90EF900895F894FFCF5A
:0801F0000000001C02190515B6
:00000001FF
