S01F0000313731325F50725F4D4152535F415474696E795F4144432E73726563A8
S11300001CC034C033C032C031C030C02FC02EC079
S11300102DC02CC02BC02AC029C028C027C026C090
S113002025C024C023C0AAC0ABC097C098C099C043
S11300309AC09BC09CC09DC09EC011241FBECFED22
S1130040CDBF10E0A0E6B0E0E2E2F6E002C0059029
S11300500D92A036B107D9F710E0A0E6B0E001C0D8
S11300601D92AA36B107E1F702D0D9C2C9CF81B334
S11300708F6381BB87B38FEF87BB8AB383608ABBEF
S1130080839902C083E001C08AE099B399B3C0E0C8
S1130090882E9924AA24BB24D0E01FD0BC0180E080
S11300A090E094D12CE336E640EA5BE341D26B0165
S11300B07C01C501B4018CD19B01AC01C701B6011F
S11300C037D260D083EC99E00197F1F700C00000CB
S11300D0CF5FCA3010F3CD2FE0CFEAE040E050E02C
S11300E080E092E0BA01682B792B9B013695279525
S11300F03695279528BB282F242B2BBB2EE12A9538
S1130100F1F7869B03C09695879503C096958795CE
S1130110AB01E15039F718BA842F952F08950000E8
S1130120909A000090980895CF93DF93D82FC8E059
S1130130D0FF03C0919AF3DF02C09198F0DFD69507
S1130140C150B1F7DF91CF910895E82FF0E0EA3084
S1130150F10598F4ED5EFF4F099489ED08958DE55E
S113016008958CE308958DE608958DEE089584E551
S113017008958DEF08958DE70895089585EF089506
S113018084E10895CF92DF92EF92FF92CF93DF93B1
S11301906B017C0160936000709361008093620046
S11301A090936300E7D0C62F6093640070E080E012
S11301B090E00ED19B01AC01C701B60172D020E0E2
S11301C030E048EC52E4B4D1D5D0D62F609365002A
S11301D0C701B60120E030E040E251E4C7D08823F3
S11301E07CF4109266002AE08C2F622F0CD290933C
S11301F067008D2F08D280936800909369000FC028
S113020081E0809366002AE08C2F622FFCD18093DA
S11302106700909368008D2FF6D1809369008091D8
S11302206600882331F4809167008FDF82607CDF71
S113023004C08091670089DF77DF949A83EF91E0AF
S11302400197F1F700C000009498000080916600C7
S1130250813031F48091680078DF826065DF04C00A
S11302608091680072DF60DF929A83EF91E00197DA
S1130270F1F700C00000929800008091690065DFEA
S113028053DF959A83EF91E00197F1F700C00000E6
S113029095980000DF91CF91FF90EF90DF90CF9081
S11302A008955058BB27AA270ED008C1F9D030F0C2
S11302B0FED020F031F49F3F11F41EF4EEC00EF492
S11302C0E095E7FBE4C0E92F0AD180F3BA1762078F
S11302D073078407950718F071F49EF522C10EF494
S11302E0E0950B2EBA2FA02D0B01B90190010C0142
S11302F0CA01A0011124FF27591B99F0593F50F45A
S1130300503E68F11A16F040A22F232F342F4427B1
S1130310585FF3CF469537952795A795F0405395A9
S1130320C9F77EF41F16BA0B620B730B840BBAF079
S11303309150A1F0FF0FBB1F661F771F881FC2F7E4
S11303400EC0BA0F621F731F841F48F487957795F8
S11303506795B795F7959E3F08F0B3CF9395880FAF
S113036008F09927EE0F9795879508956CD008F4B7
S113037081E00895BCD088F09F5790F0B92F992759
S1130380B751A0F0D1F0660F771F881F991F1AF09C
S1130390BA95C9F712C0B13081F0C3D0B1E0089565
S11303A0C0C0672F782F8827B85F39F0B93FCCF3E6
S11303B0869577956795B395D9F73EF49095809592
S11303C0709561957F4F8F4F9F4F0895E89409C0B2
S11303D097FB3EF490958095709561957F4F8F4F74
S11303E09F4F9923A9F0F92F96E9BB279395F6958A
S11303F0879577956795B795F111F8CFFAF4BB0F08
S113040011F460FF1BC06F5F7F4F8F4F9F4F16C06B
S1130410882311F096E911C0772321F09EE8872FF5
S1130420762F05C0662371F096E8862F70E060E0B1
S11304302AF09A95660F771F881FDAF7880F96952A
S1130440879597F90895990F0008550FAA0BE0E8CE
S1130450FEEF16161706E807F907C0F01216130682
S1130460E407F50798F0621B730B840B950B39F4C2
S11304700A2661F0232B242B252B21F408950A2628
S113048009F4A140A6958FEF811D811D089597F968
S11304909F6780E870E060E008959FEF80EC089526
S11304A000240A941616170618060906089500244F
S11304B00A9412161306140605060895092E0394C9
S11304C0000C11F4882352F0BB0F40F4BF2B11F43D
S11304D060FF04C06F5F7F4F8F4F9F4F089557FD9C
S11304E09058440F551F59F05F3F71F04795880F9E
S11304F097FB991F61F09F3F79F087950895121635
S113050013061406551FF2CF4695F1DF08C01616E0
S113051017061806991FF1CF869571056105089491
S11305200895E894BB2766277727CB0197F90895A8
S11305300AD0C4CFB5DF28F0BADF18F0952309F04C
S1130540A6CFABCFEFCFCBDFA8F39923D9F35523B5
S1130550C9F3950F50E0551FAA27EE27FF27BB27A5
S113056000240894679520F4E20FF31FB41F0A1EB9
S1130570220F331F441FAA1F6695A9F7779530F4FD
S1130580F30FB41F0A1E121E08F46395330F441FA1
S1130590AA1F221F769599F7879520F4B40F0A1E97
S11305A0121E631F440FAA1F221F331F8695A9F72B
S11305B0862F712D602D11249F5750408AF0E1F051
S11305C088234AF0EE0FFF1FBB1F661F771F881F8B
S11305D091505040A9F79E3F510570F058CFA2CFDB
S11305E05F3FECF3983EDCF3869577956795B79576
S11305F0F795E7959F5FC1F7FE2B880F911D9695A0
S1130600879597F90895991B79E004C0991F961767
S113061008F0961B881F7A95C9F780950895F89479
S1050620FFCF06
S9030000FC
