S0110000426C696E6B5F4C45442E73726563EF
S113000012C02CC02BC02AC029C028C027C026C0BB
S113001025C024C023C022C021C020C01FC01EC0D0
S11300201DC01CC01BC011241FBECFE5D4E0DEBF21
S1130030CDBF10E0A0E6B0E0E6E9F0E002C0059034
S11300400D92A036B107D9F710E0A0E6B0E001C0E8
S11300501D92A036B107E1F702D01BC0D1CF81B306
S11300608FEF81BB82B382BB919A8FEF99E6A8E1AF
S113007081509040A040E1F700C0000091988FEFBC
S113008099E6A8E181509040A040E1F700C000004B
S1090090EBCFF894FFCF52
S9030000FC
