:100000008DC0A7C0A6C0A5C0A4C0A3C0A2C0A1C0E7
:10001000A0C09FC09EC09DC09CC09BC0C5C599C0CC
:1000200098C097C096C000C107C10EC115C11CC1C0
:1000300023C12AC131C138C13FC146C14DC154C1DC
:100040005BC162C169C170C177C17EC185C18CC10C
:1000500093C19AC1A1C1A8C1AFC1B6C1BDC1C4C13C
:10006000CBC1D2C1D9C1E0C1E7C1EFC1F7C1FEC167
:1000700005C211C21DC224C22BC232C239C240C243
:1000800047C24EC255C25CC267C271C27DC288C23D
:1000900094C29EC2A8C2B4C2BDC2C7C2CEC2D5C29B
:1000A000DCC2E4C2EBC2F2C2FEC208C313C31DC36A
:1000B00028C332C33CC347C350C359C365C371C3CC
:1000C0007AC384C38FC398C3A2C3AEC3B9C3C3C327
:1000D000CCC3D5C3DFC3E9C3F3C3FDC309C410C494
:1000E00017C41EC425C42CC433C43DC448C452C460
:1000F0005DC467C473C47DC488C492C49CC4A8C4CE
:10010000B2C4BCC4C7C4D0C4DBC4E6C4F0C4FAC41F
:1001100006C511C51BC525C52FC53AC511241FBE6F
:10012000CFE5D4E0DEBFCDBF10E0A0E6B0E0E4EF65
:10013000F5E102C005900D92A837B107D9F720E08C
:10014000A8E7B0E001C01D92A53AB207E1F740D59B
:100150004FCA56CF8FEF81BB87BB8DB181658DB9FB
:1001600080E487B986B18B6C86B978940895672B43
:1001700011F4909801C0909A91988FB9779BFECF17
:10018000919A0895929882E08A95F1F700C0929A28
:10019000919A8FEC97E00197F1F700C00000089565
:1001A000F1DF60E070E081E290E0E1DF60E070E0CC
:1001B00089E090E0DCDF60E070E080EE90E0D7DF87
:1001C00060E070E085E190E0D2DF60E070E086E022
:1001D00090E0CDDF60E070E082E290E0C8DF60E0B8
:1001E00070E08CE090E0C3DF0895CF93DF93EB01E4
:1001F00060E070E0805C9F4FBADF60E070E0CE01AD
:1002000080589F4FB4DF8FE097E20197F1F700C06D
:100210000000DF91CF9108958B37910508F0C3C49A
:10022000FC01ED5EFF4F0994E8E7F0E010821182D7
:100230001282138214820895E8E7F0E0108211829E
:100240001282138214820895E8E7F0E0108211828E
:100250001282138214820895E8E7F0E0108211827E
:100260001282138214820895E8E7F0E0108211826E
:100270001282138214820895E8E7F0E0108211825E
:100280001282138214820895E8E7F0E0108211824E
:100290001282138214820895E8E7F0E0108211823E
:1002A0001282138214820895E8E7F0E0108211822E
:1002B0001282138214820895E8E7F0E0108211821E
:1002C0001282138214820895E8E7F0E0108211820E
:1002D0001282138214820895E8E7F0E010821182FE
:1002E0001282138214820895E8E7F0E010821182EE
:1002F0001282138214820895E8E7F0E010821182DE
:100300001282138214820895E8E7F0E010821182CD
:100310001282138214820895E8E7F0E010821182BD
:100320001282138214820895E8E7F0E010821182AD
:100330001282138214820895E8E7F0E0108211829D
:100340001282138214820895E8E7F0E0108211828D
:100350001282138214820895E8E7F0E0108211827D
:100360001282138214820895E8E7F0E0108211826D
:100370001282138214820895E8E7F0E0108211825D
:100380001282138214820895E8E7F0E0108211824D
:100390001282138214820895E8E7F0E0108211823D
:1003A0001282138214820895E8E7F0E0108211822D
:1003B0001282138214820895E8E7F0E0108211821D
:1003C0001282138214820895E8E7F0E0108211820D
:1003D0001282138214820895E8E7F0E010821182FD
:1003E0001282138214820895E8E7F0E010821182ED
:1003F0001282138214820895E8E7F0E010821182DD
:100400001282138214820895E8E7F0E010821182CC
:100410001282138214820895E8E7F0E010821182BC
:100420001282138214820895E8E7F0E010821182AC
:100430001282138214820895E8E7F0E0108211829C
:100440008FE58283138214820895E8E7F0E010823A
:1004500086E081831282838314820895E8E7F0E0C6
:10046000108211821282138214820895E8E7F0E06C
:10047000108211821282138214820895E8E7F0E05C
:1004800083E2808383E1818388E0828384E68383BF
:1004900082E684830895E8E7F0E086E3808389E4D8
:1004A000818385E5828382E2838380E58483089566
:1004B000E8E7F0E01082118212821382148208951C
:1004C000E8E7F0E01082118212821382148208950C
:1004D000E8E7F0E0108211821282138214820895FC
:1004E000E8E7F0E0108211821282138214820895EC
:1004F000E8E7F0E0108211821282138214820895DC
:10050000E8E7F0E0108211821282138214820895CB
:10051000E8E7F0E0108211821282138214820895BB
:10052000E8E7F0E0108211821282138214820895AB
:10053000E8E7F0E01082118212821382148208959B
:10054000E8E7F0E08EE3808391E5918399E492837C
:1005500095E4938384830895E8E7F0E0108282E4D1
:1005600081838FE7828380E4838314820895E8E7A0
:10057000F0E082E4808381E6818381E5828389E4FF
:10058000838386E484830895E8E7F0E082E2808351
:1005900081E4818389E48283838386E3848308956D
:1005A000E8E7F0E088E1808384E1818382E182836F
:1005B0008FE7838380E184830895E8E7F0E087E2B2
:1005C000808385E481838283838389E384830895A0
:1005D000E8E7F0E08EE3808389E48183828383838C
:1005E00082E384830895E8E7F0E081E6808381E197
:1005F000818389E0828385E0838383E08483089517
:10060000E8E7F0E096E3908389E481838283838343
:1006100094830895E8E7F0E086E2808389E48183AB
:10062000828383838EE384830895E8E7F0E0108279
:1006300011821282138214820895E8E7F0E010829A
:1006400011821282138214820895E8E7F0E010828A
:1006500011821282138214820895E8E7F0E084E1A7
:10066000808381838283838384830895E8E7F0E035
:10067000108211821282138214820895E8E7F0E05A
:10068000108211821282138214820895E8E7F0E04A
:1006900082E3808389E4818389E5828381E58383A2
:1006A0008EE384830895E8E7F0E08CE7808392E1AD
:1006B000918321E12283938384830895E8E7F0E026
:1006C0008FE7808389E4818382838EE4838380E360
:1006D00084830895E8E7F0E08EE3808381E48183FA
:1006E0008283838382E284830895E8E7F0E08FE7E2
:1006F000808381E48183828382E283838CE18483AB
:100700000895E8E7F0E08FE7808389E481838283BE
:10071000838381E484830895E8E7F0E08FE78083B2
:1007200089E081838283838381E084830895E8E77D
:10073000F0E08EE3808381E4818381E5828383839B
:1007400082E384830895E8E7F0E09FE7908388E000
:1007500081838283838394830895E8E7F0E01082A5
:1007600081E481839FE79283838314820895E8E77D
:10077000F0E080E2808380E4818381E482838FE300
:10078000838381E084830895E8E7F0E08FE7808346
:1007900088E0818384E1828382E2838381E48483AD
:1007A0000895E8E7F0E08FE7808380E48183828327
:1007B000838384830895E8E7F0E08FE7808392E005
:1007C000918324E02283938384830895E8E7F0E013
:1007D0008FE7808394E0918398E0928390E1938304
:1007E00084830895E8E7F0E09EE3908381E48183C9
:1007F0008283838394830895E8E7F0E08EE7808323
:1008000081E18183828383838EE084830895E8E796
:10081000F0E08EE3808381E4818381E5828381E659
:1008200083838EE784830895E8E7F0E08EE7808392
:1008300081E18183828381E283838EE484830895CE
:10084000E8E7F0E086E2808389E481838283838322
:1008500082E384830895E8E7F0E081E08083818388
:100860009FE79283838384830895E8E7F0E09FE322
:10087000908380E481838283838394830895E8E76F
:10088000F0E08FE0808390E3918320E422839383E0
:1008900084830895E8E7F0E08FE3808390E4918318
:1008A00020E32283938384830895E8E7F0E083E6DE
:1008B000808394E1918328E0228393838483089545
:1008C000E8E7F0E083E0808394E0918328E72283E7
:1008D000938384830895E8E7F0E081E6808381E5EF
:1008E000818389E4828385E4838383E48483089518
:1008F000E8E7F0E0108211821282138214820895D8
:10090000E8E7F0E0108211821282138214820895C7
:10091000E8E7F0E0108211821282138214820895B7
:10092000E8E7F0E0108211821282138214820895A7
:10093000E8E7F0E010821182128213821482089597
:10094000E8E7F0E010821182128213821482089587
:10095000E8E7F0E080E2808384E58183828383831B
:1009600088E784830895E8E7F0E08FE7808388E4F0
:10097000818384E48283838388E384830895E8E722
:10098000F0E088E3808384E481838283838388E248
:1009900084830895E8E7F0E088E3808384E481833A
:1009A000828388E483838FE784830895E8E7F0E017
:1009B00088E3808384E581838283838388E18483E1
:1009C0000895E8E7F0E088E080838EE7818389E09E
:1009D000828381E0838382E084830895E8E7F0E006
:1009E0008CE4808384E98183828383838CE784839E
:1009F0000895E8E7F0E08FE7808388E0818384E072
:100A00008283838388E784830895E8E7F0E0108297
:100A100084E481838DE7828380E483831482089554
:100A2000E8E7F0E0108280E4818384E482838DE350
:100A3000838314820895E8E7F0E08FE7808380E203
:100A4000818380E1828388E2838384E484830895C0
:100A5000E8E7F0E0108281E481838FE7828380E41D
:100A6000838314820895E8E7F0E08CE7808394E0C4
:100A7000918328E12283938384830895E8E7F0E05B
:100A80008CE7808388E0818384E08283838388E7A6
:100A900084830895E8E7F0E098E3908384E4818319
:100AA0008283838394830895E8E7F0E08CEF80836A
:100AB00084E1818384E28283838388E1848308954F
:100AC000E8E7F0E088E1808384E28183828384E147
:100AD00083838CEF84830895E8E7F0E08CE78083DC
:100AE00084E08183828388E0838314820895E8E729
:100AF000F0E088E0808384E581838283838380E2E1
:100B000084830895E8E7F0E088E080838FE38183C1
:100B100088E4828380E4838380E284830895E8E725
:100B2000F0E08CE3808380E48183828380E28383AE
:100B30008CE784830895E8E7F0E08CE1808390E41B
:100B40009183928390E2938384830895E8E7F0E0B1
:100B50008CE3808390E4918320E3228393838483D6
:100B60000895E8E7F0E084E4808398E2918320E14F
:100B70002283938384830895E8E7F0E08CE0808308
:100B800080E58183828388E483838CE38483089572
:100B9000E8E7F0E084E4808394E6918394E592832F
:100BA0009CE49383848308951F920F920FB60F9253
:100BB00011248F939F9384B195B190937E0080937D
:100BC0007D009F918F910F900FBE0F901F901895F1
:100BD000CF93DF9300D000D000D0CDB7DEB7BADA24
:100BE000DFDA60E070E080E090E0FFDA8FE19EE421
:100BF0000197F1F700C0000000E313E061E070E04E
:100C000080E090E0B4DA01501109C1F7AFE1BEE431
:100C10001197F1F700C0000060E070E080E090E024
:100C2000E4DABFEFE2E5F7E0B150E040F040E1F791
:100C300000C0000000E010E061E070E0C80197DA59
:100C40002FEF84E39CE0215080409040E1F700C00A
:100C500000000F5F1F4F0F3F110571F7AFE1BEE4BA
:100C60001197F1F700C0000060E070E083E090E0D1
:100C7000BCDA8AE0E0E6F0E0A1E8B0E001900D9295
:100C80008A95E1F70F2EF1E86F2EF0E07F2EF02D20
:100C90000F2EF9E8CF2EF0E0DF2EF02D0F2EF8E723
:100CA0004F2EF0E05F2EF02D0F2EFDE7EF2EF0E03F
:100CB000FF2EF02D130109C0822D8619813129F4F0
:100CC00060E070E084E090E090DAF10181911F0132
:100CD00090E0A2DAA42CB52C87014201D4018D91B9
:100CE0004D0161E070E0082E000C990B40DA8E1483
:100CF0009F04A1F761E070E080E090E038DA2C1406
:100D00003D04D1F660E070E085E090E06EDA8BE0C3
:100D1000EAE6F0E0A2E9B0E001900D928A95E1F7F1
:100D20000F2EF2E9EF2EF0E0FF2EF02D0F2EFCE952
:100D3000CF2EF0E0DF2EF02D47014A2C5B2C09C0AE
:100D4000882D8E19813129F460E070E084E090E014
:100D50004CDAF40181914F0190E05EDA242C352CBD
:100D6000D1018D911D0161E070E0082E000C990BFE
:100D7000FED920163106A1F761E070E080E090E036
:100D8000F6D98C149D04E1F60F2EF5E72F2EF0E036
:100D90003F2EF02D0F2EF5E84F2EF0E05F2EF02DB8
:100DA0006B827C820F2EF7E98F2EF0E09F2EF02DC4
:100DB000E982FA8268E370E083E090E016DA8091DD
:100DC0007E008F9380917D008F933F922F92A1E8B8
:100DD000B0E0BF93AF9326D10F900F900F900F907C
:100DE0000F900F90CB80DC8009C08C2D861981314B
:100DF00029F460E070E084E090E0F7D9D6018D91AD
:100E00006D0190E009DAAD82BE82AD81BE818D9127
:100E1000BE83AD8361E070E0082E000C990BA7D96A
:100E2000ED81FE81E017F10781F761E070E080E07D
:100E300090E09DD9C414D504C1F680917D009091B5
:100E40007E009C01220F331F220F331F820F931F3E
:100E50009093800080937F0068EE73E0BCD0709325
:100E60007E0060937D0067E370E085E090E0BDD98F
:100E700080917E008F9380917D008F933F922F927F
:100E8000A2E9B0E0BF93AF93EDD00F900F900F9019
:100E90000F900F900F90C980DA8009C08C2D8E19A9
:100EA000813129F460E070E084E090E09ED9D601C1
:100EB0008D916D0190E0B0D9AD82BE82AD81BE81D1
:100EC0008D91BE83AD8361E070E0082E000C990B1C
:100ED0004ED9ED81FE81E017F10781F761E070E006
:100EE00080E090E044D9C814D904C1F680917F0015
:100EF0009091800068EE73E06ED090937E008093B6
:100F00007D0061E470E085E090E06FD980917E0023
:100F10008F9380917D008F933F922F92A2E9B0E052
:100F2000BF93AF939FD00F900F900F900F900F90A3
:100F30000F90C980DA8009C08C2D8E19813129F477
:100F400060E070E084E090E050D9D6018D916D01B1
:100F500090E062D9AD82BE82AD81BE818D91BE83AB
:100F6000AD8361E070E0082E000C990B00D9ED8193
:100F7000FE81E017F10781F761E070E080E090E02A
:100F8000F6D88C149D04C1F6FFEF20E782E0F15003
:100F900020408040E1F700C00000369A60E070E039
:100FA0008DE090E0E4D89FEFA9E6B8E19150A04031
:100FB000B040E1F700C0000060E070E08CE090E03D
:100FC000D6D8EFEFF9E628E1E150F0402040E1F714
:100FD00000C00000EFCE97FB072E16F4009406D059
:100FE00077FD08D00BD007FC05D03EF49095819595
:100FF0009F4F0895709561957F4F0895AA1BBB1B65
:1010000051E107C0AA1FBB1FA617B70710F0A61B08
:10101000B70B881F991F5A95A9F780959095BC0129
:10102000CD010895AEE0B0E0E7E1F8E0B8C20D8987
:101030001E8986E08C831A8309838FEF9FE79E8346
:101040008D83AE01475E5F4F6F89788DCE0101962B
:1010500029D02F813885F801E20FF31F10822E96D8
:10106000E4E0B9C2AEE0B0E0E7E3F8E098C20D8991
:101070001E898EE08C831A8309838FEF9FE79E83FE
:101080008D83AE01475E5F4F6F89788DCE010196EB
:1010900009D02F813885F801E20FF31F10822E96B8
:1010A000E4E099C2ACE0B0E0E7E5F8E06AC27C01B8
:1010B0006B018A01FC0117821682838181FFB0C116
:1010C000CE0101964C01F7019381F60193FD8591C4
:1010D00093FF81916F01882309F49EC1853239F411
:1010E00093FD859193FF81916F01853221F4B701C2
:1010F00090E0B1D1E8CF512C312C20E02032A0F487
:101100008B3269F030F4803259F0833269F4206117
:101110002CC08D3239F0803339F4216026C0226032
:10112000246023C0286021C027FD27C030ED380F80
:101130003A3078F426FF06C0FAE05F9E300D1124A5
:10114000532E13C08AE0389E300D1124332E2062B6
:101150000CC08E3221F426FD5FC1206406C08C369F
:1011600011F4206802C0883641F4F60193FD8591A0
:1011700093FF81916F018111C1CF982F9F7D95546D
:10118000933028F40C5F1F4FFFE3F9830DC08336C3
:1011900031F0833771F0833509F057C021C0F80171
:1011A000808189830E5F1F4F44244394512C540146
:1011B00014C03801F2E06F0E711CF801A080B180FC
:1011C00026FF03C0652D70E002C06FEF7FEFC50101
:1011D0002C8736D12C0183012C852F77222E16C027
:1011E0003801F2E06F0E711CF801A080B18026FF7B
:1011F00003C0652D70E002C06FEF7FEFC5012C8743
:1012000014D12C012C852068222E830123FC19C0C7
:10121000832D90E048165906A0F4B70180E290E0D3
:101220001AD13A94F5CFF50127FC859127FE8191DB
:101230005F01B70190E00FD131103A94F1E04F1AFD
:1012400051084114510479F7DEC0843611F0893613
:1012500031F5F80127FF07C0608171818281938198
:101260000C5F1F4F08C060817181072E000C880B36
:10127000990B0E5F1F4F2F76722E97FF09C0909526
:101280008095709561957F4F8F4F9F4F2068722E8C
:101290002AE030E0A40117D1A82EA81843C0853752
:1012A00029F42F7EB22E2AE030E025C0F22FF97FFC
:1012B000BF2E8F36C1F018F4883579F0ADC0803775
:1012C00019F0883721F0A8C02F2F2061B22EB4FE6C
:1012D0000DC08B2D8460B82E09C024FF0AC09F2F3B
:1012E0009660B92E06C028E030E005C020E130E06D
:1012F00002C020E132E0F801B7FE07C060817181D1
:10130000828193810C5F1F4F06C06081718180E0F4
:1013100090E00E5F1F4FA401D6D0A82EA818FB2D79
:10132000FF777F2E76FE0BC0372D3E7FA51450F43D
:1013300074FE0AC072FC08C0372D3E7E05C0BA2C70
:10134000372D03C0BA2C01C0B52C34FF0DC0FE01EF
:10135000EA0DF11D8081803311F4397E09C032FF1E
:1013600006C0B394B39404C0832F867809F0B39475
:1013700033FD12C030FF06C05A2CB31418F4530CBE
:101380005B18B32CB31460F4B70180E290E03C87A3
:1013900062D0B3943C85F6CFB31410F43B1801C06F
:1013A000312C34FF11C0B70180E390E03C8753D06B
:1013B0003C8532FF16C031FD03C088E790E002C0D3
:1013C00088E590E0B7010CC0832F867851F031FF9B
:1013D00002C08BE201C080E237FD8DE2B70190E0F0
:1013E0003AD0A51430F4B70180E390E034D05A9499
:1013F000F8CFAA94F401EA0DF11D8081B70190E0C5
:101400002AD0A110F6CF332009F45DCEB70180E2D7
:1014100090E021D03A94F7CFF7018681978102C0FE
:101420008FEF9FEF2C96E2E1C8C0FC010590615060
:1014300070400110D8F7809590958E0F9F1F0895EA
:10144000FC016150704001900110D8F78095909593
:101450008E0F9F1F08950F931F93CF93DF93FB0170
:10146000238121FD03C08FEF9FEF28C022FF16C00C
:1014700046815781248135814217530744F4A08166
:10148000B1819D012F5F3F4F318320838C93268153
:1014900037812F5F3F4F3783268310C0EB01092F21
:1014A000182F0084F185E02D0995892BE1F68E81B6
:1014B0009F8101969F838E83812F902FDF91CF9103
:1014C0001F910F910895FA01AA27283051F1203178
:1014D00081F1E8946F936E7F6E5F7F4F8F4F9F4FC8
:1014E000AF4FB1E03ED0B4E03CD0670F781F891F0A
:1014F0009A1FA11D680F791F8A1F911DA11D6A0FD8
:10150000711D811D911DA11D20D009F468943F918A
:101510002AE0269F11243019305D3193DEF6CF0189
:101520000895462F4770405D4193B3E00FD0C9F74F
:10153000F6CF462F4F70405D4A3318F0495D31FDBC
:101540004052419302D0A9F7EACFB4E0A69597950F
:10155000879577956795BA95C9F7009761057105E5
:1015600008959B01AC010A2E06945795479537952F
:101570002795BA95C9F7620F731F841F951FA01D89
:1015800008952F923F924F925F926F927F928F9227
:101590009F92AF92BF92CF92DF92EF92FF920F9302
:1015A0001F93CF93DF93CDB7DEB7CA1BDB0B0FB60C
:1015B000F894DEBF0FBECDBF09942A8839884888C9
:1015C0005F846E847D848C849B84AA84B984C8845F
:1015D000DF80EE80FD800C811B81AA81B981CE0F56
:1015E000D11D0FB6F894DEBF0FBECDBFED0108953B
:0415F000F894FFCF9D
:1015F400202041444320203D2000564F4C54414775
:0816040045203D200025640093
:00000001FF
