:100000000C9434000C9451000C9451000C94510049
:100010000C9451000C9451000C9451000C9451001C
:100020000C9451000C9451000C9451000C9451000C
:100030000C9451000C9451000C9451000C945100FC
:100040000C9451000C9451000C9451000C945100EC
:100050000C9451000C9451000C9451000C945100DC
:100060000C9451000C94510011241FBECFEFD8E026
:10007000DEBFCDBF12E0A0E0B1E0E6EDF8E002C0E7
:1000800005900D92AA3DB107D9F713E0AAEDB2E0B1
:1000900001C01D92AE33B107E1F70E94C5000C9478
:1000A00069040C940000CF93DF93AAEDB2E0E0E086
:1000B000F1E088E601900D928150E1F7CAEDD2E0BF
:1000C000CE010E9439018AE00E9431018DE00E9438
:1000D0003101E8E6F1E080E5019009928150E1F715
:1000E000CAEDD2E0CE010E9439018AE00E943101BE
:1000F0008DE00E943101E8EBF1E081E50190099289
:100100008150E1F7CAEDD2E0CE010E9439018AE0C8
:100110000E9431018DE00E943101E9E0F2E083E5C7
:10012000019009928150E1F7CAEDD2E0CE010E9420
:1001300039018AE00E9431018DE00E943101ECE535
:10014000F2E08BE5019009928150E1F7CAEDD2E02F
:10015000CE010E9439018AE00E9431018DE00E94A7
:100160003101E0E0F1E088E6019009928150E1F789
:100170008AED92E00E9439018AE00E9431018DE00F
:100180000E943101DF91CF9108958FEF84B980EF04
:100190008AB90E9422010E9453008BB1806F8BB9F3
:1001A000C1E20AED12E00F2EF7EBEF2EF2E0FF2E88
:1001B000F02D01C0C0E28DB79EB708970FB6F89436
:1001C0009EBF0FBE8DBFEDB7FEB73196ADB7BEB7C0
:1001D00012961C930E931197F382E282C4831582C8
:1001E000C68317820E9492018DB79EB708960FB6FC
:1001F000F8949EBF0FBE8DBFC8010E9439018AE0EE
:100200000E9431018DE00E9431018FEF93ECA9E053
:1002100081509040A040E1F700C000008BB18F708A
:100220008BB98FEF91EEA4E081509040A040E1F7B0
:1002300000C00000CF5F8BB1806F8BB9CC2309F475
:10024000B9CFB9CF83E38093C400E0ECF0E08081C4
:100250008D7F808388E18093C10086E08093C20017
:100260000895E0ECF0E0908195FFFDCF8093C6000B
:1002700008950F931F93CF938C01FC0180818823F5
:1002800051F0C0E00E943101CF5FF801EC0FF11D89
:1002900080818823B9F7CF911F910F9108958FEF37
:1002A0008093B800089584EA8093BC00ECEBF0E002
:1002B00080818823ECF7089584E98093BC00089539
:1002C0008093BB0084E88093BC00ECEBF0E080817D
:1002D0008823ECF70895CF93DF93C82FD62F0E9481
:1002E00053018D2F0E9460018C2F0E9460010E949B
:1002F0005C01DF91CF91089584EC8093BC00ECEB1E
:10030000F0E080818823ECF78091BB00089584E8B9
:100310008093BC00ECEBF0E080818823ECF78091C7
:10032000BB000895AEE0B0E0E8E9F1E00C944004D1
:100330000D891E8986E08C831A8309838FEF9FE7DE
:100340009E838D83AE01475E5F4FCE0101966F891C
:10035000788D0E94B401EF81F885E00FF11F1082C3
:100360002E96E4E00C945C04ADE0B0E0EAEBF1E042
:100370000C9432043C017D876C875A01FC01178282
:100380001682838181FFC8C12E010894411C511C33
:10039000F3019381EC85FD8593FD859193FF819118
:1003A000FD87EC87882309F4B3C1853241F493FDBE
:1003B000859193FF8191FD87EC87853229F490E048
:1003C000B3010E94A803E4CFFF24EE2410E0103212
:1003D000B0F48B3269F08C3228F4803251F08332E1
:1003E00071F40BC08D3239F0803349F411602CC0A8
:1003F0001260146029C0186027C0106125C017FD65
:100400002EC0282F20532A3098F416FF08C08F2DB5
:10041000880FF82EFF0CFF0CF80EF20E15C08E2D73
:10042000880FE82EEE0CEE0CE80EE20E10620CC007
:100430008E3221F416FD6CC1106406C08C3611F4A6
:10044000106802C0883659F4EC85FD8593FD8591CE
:1004500093FF8191FD87EC87882309F0B8CF982F0F
:100460009554933018F09052933038F424E030E0F3
:10047000A20EB31E3FE339830FC0833631F08337BA
:1004800081F0833509F05AC022C0F501808189834B
:1004900022E030E0A20EB31E21E0C22ED12C420198
:1004A00014C092E0292E312C2A0C3B1CF5018080CF
:1004B000918016FF03C06F2D70E002C06FEF7FEFD9
:1004C000C4010E949D036C0151011F7715C082E099
:1004D000282E312C2A0C3B1CF5018080918016FFC0
:1004E00003C06F2D70E002C06FEF7FEFC4010E9468
:1004F00092036C011068510113FD1CC006C080E21C
:1005000090E0B3010E94A803EA948E2D90E0C816F3
:10051000D906A8F30FC0F40117FD859117FF81914B
:100520004F0190E0B3010E94A803E110EA940894FF
:10053000C108D108C114D10471F7E7C0843611F0A5
:10054000893651F5F50117FF07C080819181A2819D
:10055000B38124E030E008C080819181AA2797FD13
:10056000A095BA2F22E030E0A20EB31E012F0F7625
:10057000B7FF08C0B095A095909581959F4FAF4F5C
:10058000BF4F0068BC01CD01A2012AE030E00E940B
:10059000D403D82ED4183FC0853721F41F7E2AE01B
:1005A00030E020C0197F8F36A9F0803720F48835DD
:1005B00009F0AEC00BC0803721F0883709F0A8C021
:1005C00001C0106114FF09C0146007C014FF08C007
:1005D000166006C028E030E005C020E130E002C02F
:1005E00020E132E0F50117FF07C06081718182814F
:1005F000938144E050E006C06081718180E090E02A
:1006000042E050E0A40EB51EA2010E94D403D82EF1
:10061000D418012F0F7706FF09C00E7FDF1430F4C6
:1006200004FF06C002FD04C00F7E02C01D2D01C0E4
:100630001F2D802F90E004FF0CC0FE01ED0DF11D79
:100640002081203311F4097E09C002FF06C01E5F1D
:1006500005C086789070009709F01F5F802E99245E
:1006600003FD12C000FF0DC0FD2C1E1550F4FE0C42
:10067000F11A1E2D06C080E290E0B3010E94A8038B
:100680001F5F1E15C0F304C01E1510F4E11A01C04F
:10069000EE2484FE0FC080E390E0B3010E94A80323
:1006A00082FE1FC081FE03C088E590E010C088E78D
:1006B00090E00DC0C40186789070009791F081FCA5
:1006C00002C080E201C08BE207FD8DE290E0B30141
:1006D0000E94A80306C080E390E0B3010E94A80333
:1006E000FA94DF14C0F3DA94F201ED0DF11D80816C
:1006F00090E0B3010E94A803DD20A9F706C080E2C4
:1007000090E0B3010E94A803EA94EE20C1F740CE26
:10071000F3018681978102C08FEF9FEF2D96E2E172
:100720000C944E04FC010590615070400110D8F704
:10073000809590958E0F9F1F0895FC016150704029
:1007400001900110D8F7809590958E0F9F1F089506
:100750000F931F93CF93DF938C01EB018B8181FF6C
:100760001BC082FF0DC02E813F818C819D81281787
:10077000390764F4E881F9810193F983E88306C0BD
:10078000E885F985802F0995009731F48E819F8146
:1007900001969F838E8302C00FEF1FEFC801DF9188
:1007A000CF911F910F910895FA01AA27283051F196
:1007B000203181F1E8946F936E7F6E5F7F4F8F4F92
:1007C0009F4FAF4FB1E03ED0B4E03CD0670F781FF1
:1007D000891F9A1FA11D680F791F8A1F911DA11DD6
:1007E0006A0F711D811D911DA11D20D009F468940F
:1007F0003F912AE0269F11243019305D3193DEF6B7
:10080000CF010895462F4770405D4193B3E00FD06C
:10081000C9F7F6CF462F4F70405D4A3318F0495D57
:1008200031FD4052419302D0A9F7EACFB4E0A6953A
:100830009795879577956795BA95C9F7009761055C
:10084000710508959B01AC010A2E069457954795B2
:1008500037952795BA95C9F7620F731F841F951FA7
:10086000A01D08952F923F924F925F926F927F92B8
:100870008F929F92AF92BF92CF92DF92EF92FF92B0
:100880000F931F93CF93DF93CDB7DEB7CA1BDB0B5C
:100890000FB6F894DEBF0FBECDBF09942A88398801
:1008A00048885F846E847D848C849B84AA84B98408
:1008B000C884DF80EE80FD800C811B81AA81B98114
:1008C000CE0FD11D0FB6F894DEBF0FBECDBFED0128
:0608D0000895F894FFCF2B
:1008D6002A5F5F5F5F5F5F5F5F5F5F5F5F5F5F5F57
:1008E6005F5F5F5F5F5F5F5F5F5F5F5F5F5F5F5F12
:1008F6005F5F5F5F5F5F5F5F5F5F5F5F5F5F5F5F02
:100906005F5F5F5F5F5F5F5F5F5F5F5F5F5F5F5FF1
:100916005F5F5F5F5F5F5F5F5F5F5F5F5F5F5F5FE1
:100926005F5F5F5F5F5F5F5F5F5F5F5F5F5F5F5FD1
:100936005F5F5F5F5F5F5F002A20205F5F20202090
:10094600205F5F205F5F205F5F20202020205F5FA9
:100956002020205F5F5F5F5F09205F5F5F5F5F2032
:10096600205F5F5F5F20205F5F5F5F20205F5F200B
:10097600205F5F20205F20205F5F20205F202020F7
:10098600205F202020205F002A20205C205C202081
:100996002F202F2F20205C5C205C202020205C5FF5
:1009A6007C202F205F5F5F2F097C5F2020205F7CEB
:1009B6007C205F5F5F7C7C207C5C205C7C20205CF4
:1009C6002F20207C7C207C7C20205C7C207C2020AE
:1009D6002F205C20207C207C002A2020205C205CAC
:1009E6002F202F2F202020205C5C205C5F5F5F2063
:1009F6005C2F205C5F5F5F205C0920207C207C20D0
:100A0600207C205F5F5F7C7C207C2F202F7C207CDD
:100A16005C2F7C207C7C207C7C207C5C20207C20C5
:100A26002F205F205C207C207C5F5F002A20202016
:100A3600205C5F5F2F2F5F5F2F5C5F5F5C5C5F5F9B
:100A46005F5F5C2020202F5F5F5F5F2F20202020CC
:100A56002020202020207C5F7C20207C5F5F5F5F41
:100A66007C7C5F7C5C5F5C7C5F7C20207C5F7C7C2C
:100A76005F7C7C5F7C205C5F7C2F5F2F205C5F5CF3
:100A86007C5F5F5F5F7C00D5EEF2FC20F2FB20E826
:100A960020EFE8E4EEF020EDEE2053796D626F6C06
:0A0AA600202D2025642025630000A8
:00000001FF
