:1000000022C03CC03BC03AC039C038C037C036C03F
:1000100035C07BC033C032C031C030C0EEC02EC04E
:100020002DC02CC02BC041C043C045C047C049C0F3
:100030004BC04DC04FC051C053C055C057C059C030
:100040005BC05DC05FC011241FBECFE5D4E0DEBF42
:10005000CDBF10E0A0E6B0E0E0ECF2E002C0059019
:100060000D92A036B107D9F710E0A0E6B0E001C0CC
:100070001D92A837B107E1F7D4D020C1C1CF83E0EA
:1000800083BF81E089BF80E487B986B18B6C86B974
:1000900078948FEF81BB87BB089580319105A0F5DF
:1000A0008D5E9F4F8F939F9308958FE382BB08953A
:1000B00089E082BB08958EE582BB08958BE582BB03
:1000C000089589E682BB089583E782BB089587E798
:1000D00082BB089589E182BB08958FE782BB0895B2
:1000E0008BE782BB08958DE782BB08958FE782BBC3
:1000F000089586E382BB08958FE382BB089586E767
:1001000082BB089584E782BB08951F920F920FB6B9
:100110000F9211242F933F934F935F936F937F938D
:100120008F939F93AF93BF93EF93FF938091620060
:100130009091630064E670E09AD0709373006093CE
:1001400072006AE070E093D0709371006093700069
:1001500090936F0080936E0018BA80917600909112
:100160007700019690937700809376008630910512
:1001700028F010927700109276002EC08230910500
:10018000B1F08330910520F48130910529F507C045
:1001900083309105A1F085309105F1F418C081E01C
:1001A00088BB809172009091730077DF15C082E068
:1001B00088BB80917000909171006FDF0DC08091BD
:1001C0006E0090916F0069DF84E088BB05C08AE013
:1001D00090E063DF80E188BBFF91EF91BF91AF9129
:1001E0009F918F917F916F915F914F913F912F914F
:1001F0000F900FBE0F901F9018951F920F920FB681
:100200000F9211248F939F9384B195B190936900BD
:10021000809368009F918F910F900FBE0F901F9059
:1002200018958091660090916700009739F481E0FD
:1002300090E0909367008093660021DF80916800D2
:100240009091690020916A0030916B00281739075E
:1002500020F490936B0080936A0080916A009091E3
:100260006B009093630080936200369AE7CF97FB10
:10027000092E07260AD077FD04D00CD006D0002026
:100280001AF4709561957F4F0895F6F790958195D2
:100290009F4F0895AA1BBB1B51E107C0AA1FBB1F9C
:1002A000A617B70710F0A61BB70B881F991F5A9502
:1002B000A9F780959095BC01CD010895F894FFCFE2
:00000001FF
