:100000001DC037C036C035C0DEC133C032C031C0BC
:1000100030C02AC22EC02DC02CC02BC02AC029C07F
:1000200028C027C026C0E6C0FAC00EC122C136C112
:100030004AC15EC172C186C19AC1AEC111241FBE40
:10004000CFE5D4E0DEBFCDBF10E0A0E6B0E0EEE546
:10005000FCE002C005900D92A83CB107D9F720E062
:10006000A8ECB0E001C01D92A03EB207E1F7C9D2F2
:10007000F4C5C6CF919A95E89A95F1F7000092B32E
:100080009F7092BB92B38295807F892B82BB91989F
:1000900085E88A95F1F700000895CF93C82F8295DF
:1000A0008F70611102C0909801C0909AE3DF8C2F8D
:1000B000E1DFCF910895CF93C82F909A82958F70EA
:1000C000D9DF8C2FD7DFCF9108958FE39CE901977B
:1000D000F1F700C0000083E0CDDF8FE097E20197E9
:1000E000F1F700C0000083E0C5DF87EC90E00197E6
:1000F000F1F700C0000083E0BDDF8FEC97E00197CF
:10010000F1F700C0000082E0B5DF8FEC97E00197C7
:10011000F1F700C0000060E08CE2BFDF8FEC97E0F9
:100120000197F1F700C0000060E08CE0B6DF8FECD3
:1001300097E00197F1F700C0000060E081E0ADDFDB
:100140008FEC97E00197F1F700C0000060E086E0D7
:10015000A4DF8FEC97E00197F1F700C0000008954D
:100160008FEC97E00197F1F700C0000060E081E0BC
:1001700094DF8FE99FE00197F1F700C00000089538
:100180008FEF81BB88E082BD14BC13BC82E085BDCB
:1001900084E083BF81E489BF789408950024769534
:1001A00067950794769567950794762F602D860F4F
:1001B000971F60E0806871DF08950F931F93CF93BE
:1001C000DF93EC018C01005F1F4F899174DFC01732
:1001D000D107D9F7DF91CF911F910F910895CF9358
:1001E000DF938B30910508F0EBC0EB01FC01ED5E75
:1001F000FF4F099460E070E0CE01D0DF8FEF5BDF4E
:1002000080E059DF8FEF57DF61E070E0CE01C6DF9D
:100210008FEF51DF81E04FDF8FEF4DDFD1C060E026
:1002200070E0CE01BBDF85E046DF8FEF44DF85E085
:1002300042DF61E070E0CE01B1DF85E03CDF8FEFAF
:100240003ADF85E038DFBCC060E070E0CE01A6DFB9
:1002500080E031DF80E02FDF8FEF2DDF61E070E0A5
:10026000CE019CDF8FEF27DF82E025DF82E023DFF6
:10027000A7C060E070E0CE0191DF82E01CDF82E089
:100280001ADF8FEF18DF61E070E0CE0187DF81E0D9
:1002900012DF81E010DF8FEF0EDF92C060E070E0D0
:1002A000CE017CDF8FEF07DF81E005DF8FEF03DF1B
:1002B00061E070E0CE0172DF85E0FDDE85E0FBDE0F
:1002C0008FEFF9DE7DC060E070E0CE0167DF8FEF79
:1002D000F2DE82E0F0DE82E0EEDE61E070E0CE0190
:1002E0005DDF81E0E8DE81E0E6DE8FEFE4DE68C01E
:1002F00060E070E0CE0152DF8FEFDDDE82E0DBDE1A
:1003000082E0D9DE61E070E0CE0148DF8FEFD3DE1E
:1003100081E0D1DE8FEFCFDE53C060E070E0CE0130
:100320003DDF80E0C8DE80E0C6DE8FEFC4DE61E046
:1003300070E0CE0133DF85E0BEDE85E0BCDE8FEF0E
:10034000BADE3EC060E070E0CE0128DF8FEFB3DEA2
:1003500082E0B1DE8FEFAFDE61E070E0CE011EDF44
:100360008FEFA9DE81E0A7DE8FEFA5DE29C060E078
:1003700070E0CE0113DF8FEF9EDE82E09CDE8FEF18
:100380009ADE61E070E0CE0109DF81E094DE81E079
:1003900092DE8FEF90DE14C060E070E0CE01FEDEF2
:1003A00085E089DE85E087DE85E085DE61E070E05E
:1003B000CE01F4DE85E07FDE85E07DDE85E07BDE5C
:1003C000DF91CF9108951F920F920FB60F921124D3
:1003D0008F939F938091C8008F5F803118F4809332
:1003E000C8000BC01092C8008091DC009091DD0025
:1003F00001969093DD008093DC008091DC00909169
:10040000DD00CC976CF01092DD001092DC00809142
:10041000C2009091C30001969093C3008093C200E4
:100420008091C2009091C300CC976CF01092C300F1
:100430001092C2008091C0009091C10001969093EB
:10044000C1008093C0008091C0009091C100489786
:1004500024F01092C1001092C0009F918F910F90D4
:100460000FBE0F901F9018951F920F920FB60F920C
:100470001124EF92FF920F931F932F933F934F936B
:100480005F936F937F938F939F93AF93BF93CF931C
:10049000DF93EF93FF938091DE009091DF00892B33
:1004A00069F581E090E09093DF008093DE000DDE3F
:1004B0008FEC97E00197F1F700C0000060E080E466
:1004C000ECDDC0E6D0E00F2EF0ECEF2EF0E0FF2EDA
:1004D000F02D10C08881998122968093DA00909344
:1004E000DB0061E0DADDC017D107A1F7E801E01613
:1004F000F10621F08E01005F1F4FECCF8091C0000C
:100500009091C1002AE030E0B901BAD0FB017C0132
:100510008091C2009091C300B901B2D08B01EC016F
:100520001E161F062CF460E070E0CF0158DE05C0F7
:1005300060E070E08AE090E052DE64E070E0C701C5
:100540004EDE68E070E0C8014ADE6CE070E0CE018B
:1005500046DE60E070E080E190E020DE8091DD002A
:100560008F938091DC008F9384EC90E09F938F9326
:100570008BEC90E09F938F93AAD08BEC90E01DDEE4
:100580000F900F900F900F900F900F908091C800D8
:10059000883071F460E070E087E090E0FFDD84E097
:1005A0008ADD61E070E087E090E0F8DD84E083DDE3
:1005B0008091C80081110EC060E070E087E090E09B
:1005C000EDDD85E078DD61E070E087E090E0E6DD7C
:1005D00085E071DDFF91EF91DF91CF91BF91AF91F8
:1005E0009F918F917F916F915F914F913F912F914B
:1005F0001F910F91FF90EF900F900FBE0F901F90E3
:100600001895BEDD2FEF80E792E0215080409040AA
:10061000E1F700C0000059DD2FEF80E792E02150A4
:1006200080409040E1F700C000009ADD2FEF80E7A6
:1006300092E0215080409040E1F700C0000060E06F
:1006400080E42BDDC0E6D0E00F2EF0ECEF2EF0E0E2
:10065000FF2EF02D10C08881998122968093DA00B8
:100660009093DB0061E019DDC017D107A1F7E80125
:10067000E016F10621F08E01005F1F4FECCFFFCF97
:1006800097FB072E16F4009406D077FD08D00BD008
:1006900007FC05D03EF4909581959F4F0895709585
:1006A00061957F4F0895AA1BBB1B51E107C0AA1F8C
:1006B000BB1FA617B70710F0A61BB70B881F991F03
:1006C0005A95A9F780959095BC01CD010895AEE0AB
:1006D000B0E0ECE6F3E098C20D891E8986E08C83D9
:1006E0001A8309838FEF9FE79E838D83AE01475E58
:1006F0005F4F6F89788DCE01019609D02F813885A3
:10070000F801E20FF31F10822E96E4E099C2ACE0EC
:10071000B0E0ECE8F3E06AC27C016B018A01FC0105
:1007200017821682838181FFB0C1CE0101964C01F0
:10073000F7019381F60193FD859193FF81916F01FC
:10074000882309F49EC1853239F493FD859193FF86
:1007500081916F01853221F4B70190E0B1D1E8CFEA
:10076000512C312C20E02032A0F48B3269F030F48F
:10077000803259F0833269F420612CC08D3239F017
:10078000803339F4216026C02260246023C02860B1
:1007900021C027FD27C030ED380F3A3078F426FF0E
:1007A00006C0FAE05F9E300D1124532E13C08AE07C
:1007B000389E300D1124332E20620CC08E3221F46D
:1007C00026FD5FC1206406C08C3611F4206802C08B
:1007D000883641F4F60193FD859193FF81916F0175
:1007E0008111C1CF982F9F7D9554933028F40C5FD1
:1007F0001F4FFFE3F9830DC0833631F0833771F06B
:10080000833509F057C021C0F801808189830E5FCC
:100810001F4F44244394512C540114C03801F2E07A
:100820006F0E711CF801A080B18026FF03C0652DFA
:1008300070E002C06FEF7FEFC5012C8736D12C012D
:1008400083012C852F77222E16C03801F2E06F0E1F
:10085000711CF801A080B18026FF03C0652D70E0F7
:1008600002C06FEF7FEFC5012C8714D12C012C85BE
:100870002068222E830123FC19C0832D90E04816A6
:100880005906A0F4B70180E290E01AD13A94F5CF6E
:10089000F50127FC859127FE81915F01B70190E06A
:1008A0000FD131103A94F1E04F1A5108411451041C
:1008B00079F7DEC0843611F0893631F5F80127FF6B
:1008C00007C060817181828193810C5F1F4F08C0D6
:1008D00060817181072E000C880B990B0E5F1F4FF2
:1008E0002F76722E97FF09C090958095709561952F
:1008F0007F4F8F4F9F4F2068722E2AE030E0A40177
:1009000017D1A82EA81843C0853729F42F7EB22E00
:100910002AE030E025C0F22FF97FBF2E8F36C1F0DC
:1009200018F4883579F0ADC0803719F0883721F098
:10093000A8C02F2F2061B22EB4FE0DC08B2D846075
:10094000B82E09C024FF0AC09F2F9660B92E06C09A
:1009500028E030E005C020E130E002C020E132E0D4
:10096000F801B7FE07C060817181828193810C5FBD
:100970001F4F06C06081718180E090E00E5F1F4FC5
:10098000A401D6D0A82EA818FB2DFF777F2E76FEC7
:100990000BC0372D3E7FA51450F474FE0AC072FCC4
:1009A00008C0372D3E7E05C0BA2C372D03C0BA2CA7
:1009B00001C0B52C34FF0DC0FE01EA0DF11D808190
:1009C000803311F4397E09C032FF06C0B394B3946A
:1009D00004C0832F867809F0B39433FD12C030FF32
:1009E00006C05A2CB31418F4530C5B18B32CB31470
:1009F00060F4B70180E290E03C8762D0B3943C851C
:100A0000F6CFB31410F43B1801C0312C34FF11C0E1
:100A1000B70180E390E03C8753D03C8532FF16C09D
:100A200031FD03C088E790E002C088E590E0B7019F
:100A30000CC0832F867851F031FF02C08BE201C0D9
:100A400080E237FD8DE2B70190E03AD0A51430F492
:100A5000B70180E390E034D05A94F8CFAA94F4011F
:100A6000EA0DF11D8081B70190E02AD0A110F6CFE8
:100A7000332009F45DCEB70180E290E021D03A94B2
:100A8000F7CFF7018681978102C08FEF9FEF2C96F9
:100A9000E2E1C8C0FC010590615070400110D8F738
:100AA000809590958E0F9F1F0895FC0161507040B6
:100AB00001900110D8F7809590958E0F9F1F089593
:100AC0000F931F93CF93DF93FB01238121FD03C07D
:100AD0008FEF9FEF28C022FF16C0468157812481E7
:100AE00035814217530744F4A081B1819D012F5FE6
:100AF0003F4F318320838C93268137812F5F3F4F77
:100B00003783268310C0EB01092F182F0084F1854D
:100B1000E02D0995892BE1F68E819F8101969F83B7
:100B20008E83812F902FDF91CF911F910F91089588
:100B3000FA01AA27283051F1203181F1E8946F930E
:100B40006E7F6E5F7F4F8F4F9F4FAF4FB1E03ED0B4
:100B5000B4E03CD0670F781F891F9A1FA11D680F52
:100B6000791F8A1F911DA11D6A0F711D811D911D85
:100B7000A11D20D009F468943F912AE0269F1124FA
:100B80003019305D3193DEF6CF010895462F47705E
:100B9000405D4193B3E00FD0C9F7F6CF462F4F70B9
:100BA000405D4A3318F0495D31FD4052419302D017
:100BB000A9F7EACFB4E0A6959795879577956795BD
:100BC000BA95C9F700976105710508959B01AC01BD
:100BD0000A2E06945795479537952795BA95C9F7E4
:100BE000620F731F841F951FA01D08952F923F92BF
:100BF0004F925F926F927F928F929F92AF92BF922D
:100C0000CF92DF92EF92FF920F931F93CF93DF93D8
:100C1000CDB7DEB7CA1BDB0B0FB6F894DEBF0FBE35
:100C2000CDBF09942A88398848885F846E847D8482
:100C30008C849B84AA84B984C884DF80EE80FD8084
:100C40000C811B81AA81B981CE0FD11D0FB6F894FA
:0E0C5000DEBF0FBECDBFED010895F894FFCFBB
:100C5E001F001F0000000000000000000000000048
:100C6E000000000000000000000000001F001F0038
:100C7E001F001F0000000000000000001F001F00EA
:100C8E00000000000D001F001F001F000D000000DF
:100C9E000000000011000A0004000A00110000000C
:100CAE000000000000000000000000000000000036
:080CBE0017003B002564000053
:00000001FF
