:1000000012C02CC02BC02AC029C028C027C026C0BF
:1000100025C024C023C022C021C020C01FC01EC0D4
:100020001DC01CC01BC011241FBECFE5D4E0DEBF25
:10003000CDBF10E0A0E6B0E0E2EEF0E002C0059037
:100040000D92A036B107D9F720E0A0E6B0E001C0DC
:100050001D92A036B207E1F710D041C0D1CF81EA9E
:100060008FBD8AE08EBD89E685BD1BBC1ABC19BC5C
:1000700018BC13BC8FEF87BB0895F1DF11BA12BA19
:10008000809B0EC08AB59BB505969BBD8ABD2FEFA0
:1000900081EE94E0215080409040E1F700C00000E4
:1000A000819B0EC08AB59BB505979BBD8ABD2FEF7E
:1000B00081EE94E0215080409040E1F700C00000C4
:1000C000829BDECF83B58B5F83BD2FEF81EE94E003
:1000D000215080409040E1F700C00000D1CFF8945B
:0200E000FFCF50
:00000001FF
