:1000000012C02CC02BC02AC029C028C027C026C0BF
:1000100025C024C023C022C021C020C01FC01EC0D4
:100020001DC01CC01BC011241FBECFE5D4E0DEBF25
:10003000CDBF10E0A0E6B0E0ECEAF0E002C0059031
:100040000D92A036B107D9F710E0A0E6B0E001C0EC
:100050001D92A036B107E1F702D026C0D1CF8FEFB5
:1000600081BB12BA14BA12BA81E091E020E8989BE1
:1000700005C0803811F0880F01C0892F999B03C0FB
:10008000813021F08695882319F003C0822F01C0AA
:10009000892F4FEF52E567E0415050406040E1F753
:0C00A00000C0000082BBE3CFF894FFCF4B
:00000001FF
