S0120000536C696465725F4C45442E737265637B
S113000012C02CC02BC02AC029C028C027C026C0BB
S113001025C024C023C022C021C020C01FC01EC0D0
S11300201DC01CC01BC011241FBECFE5D4E0DEBF21
S1130030CDBF10E0A0E6B0E0E6EBF0E002C0059032
S11300400D92A036B107D9F710E0A0E6B0E001C0E8
S11300501D92A036B107E1F702D02BC0D1CF81B3F6
S11300608FEF81BB82B382BB90E081E027E0E0E0C8
S113007031E00CC082BB880F4FEF52E567E041507E
S113008050406040E1F700C000009F5F973090F35C
S1130090922F82BB86954FEF52E567E04150504066
S11300A06040E1F700C00000915099F79E2F832F24
S10900B0EDCFF894FFCF30
S9030000FC
